:100000000C949A050C94C2050C94C2050C94C2057C
:100010000C94C2050C94C2050C94C2050C94C20544
:100020000C94C2050C94C2050C94C2050C942A17BA
:100030000C94C2050C94C2050C94C2050C94C20524
:100040000C9488160C94C2050C94F8160C94D216D5
:100050000C94C2050C94C2050C94C2050C94C20504
:100060000C94C2050C94C20500407A10F35A00A00B
:10007000724E18090010A5D4E80000E87648170071
:1000800000E40B54020000CA9A3B000000E1F505B1
:10009000000080969800000040420F000000A086FB
:1000A00001000000102700000000E803000000002D
:1000B0006400000000000A000000000001000000D1
:1000C00000002C76D888DC674F0823DFC1DFAE59EB
:1000D000E1B1B796E5E3E453C63AE651997696E87E
:1000E000E6C28426EB898C9B62ED407C6FFCEFBC02
:1000F0009C9F40F2BAA56FA5F490055A2AF75C932D
:100100006B6CF9676DC11BFCE0E40D47FEF520E662
:10011000B500D0ED902E0300943577050080841E45
:10012000080000204E0A000000C80C333333330FA0
:10013000986E12831141EF8D2114893BE65516CF3D
:10014000FEE6DB18D1844B381BF77C1D901DA4BB49
:10015000E424203284725E228100C9F124ECA1E5FE
:100160003D2753657474696E6773207361766564A7
:1001700020746F20454550524F4D003C004552526F
:100180004F52204F4E205041525345203E005D00BB
:100190002C006E65772076616C7565205452494756
:1001A0004745525B004572726F723A20456D70741C
:1001B000792062797465537472005061727365645A
:1001C000206C61737420627974653A20005061720A
:1001D00073696E67206C61737420627974655374FF
:1001E000723A20004572726F723A20456D707479D0
:1001F0002062797465537472005061727365642073
:10020000627974653A200050617273696E6720628A
:100210007974655374723A2000506172616D732075
:1002200061667465722072656D6F76696E672027EE
:100230005B273A2000506172616D733A200054527E
:1002400049474745525B005D002C006E657720767C
:10025000616C756520434153484C4553535F434897
:1002600045434B5F4954454D5F50524943455B0000
:100270004572726F723A20456D707479206279749C
:100280006553747200506172736564206C6173749D
:1002900020627974653A200050617273696E67203C
:1002A0006C61737420627974655374723A200045EE
:1002B00072726F723A20456D70747920627974653C
:1002C0005374720050617273656420627974653A88
:1002D000200050617273696E67206279746553748F
:1002E000723A2000506172616D73206166746572AC
:1002F0002072656D6F76696E6720275B273A200054
:10030000506172616D733A2000434153484C45532C
:10031000535F434845434B5F4954454D5F505249F5
:1003200043455B005D002C006E65772076616C753F
:100330006520434153484C4553535F5345545F49EF
:1003400054454D5F50524943455B004572726F7290
:100350003A20456D70747920627974655374720027
:10036000506172736564206C617374206279746586
:100370003A200050617273696E67206C617374205B
:10038000627974655374723A20004572726F723AE2
:1003900020456D70747920627974655374720050D1
:1003A000617273656420627974653A2000506172ED
:1003B00073696E6720627974655374723A200050D5
:1003C0006172616D732061667465722072656D6F14
:1003D00076696E6720275B273A2000506172616D55
:1003E000733A2000434153484C4553535F5345549F
:1003F0005F4954454D5F50524943455B005D002CB9
:10040000006E65772076616C75652042494C4C5FC3
:1004100056414C494441544F525F504152414D5B0B
:10042000004572726F723A20456D7074792062795E
:10043000746553747200506172736564206C6173EB
:100440007420627974653A200050617273696E6736
:10045000206C61737420627974655374723A200061
:100460004572726F723A20456D70747920627974AA
:1004700065537472005061727365642062797465AB
:100480003A200050617273696E6720627974655317
:1004900074723A2000506172616D732061667465F8
:1004A000722072656D6F76696E6720275B273A2030
:1004B00000506172616D733A200042494C4C5F56A6
:1004C000414C494441544F525F504152414D5B00B1
:1004D0005D006E65772076616C75652053494D50DF
:1004E0004C455F534E4946465B0053494D504C4581
:1004F0005F534E4946465B005D006E65772076612E
:100500006C7565204D41535445525F534E494646E4
:100510005B004D41535445525F534E4946465B0084
:100520005D006E65772076616C7565204D41505F8A
:100530004D41585B004D41505F4D41585B005D009F
:100540006E65772076616C7565204D41505F4D4931
:100550004E5B004D41505F4D494E5B005D006E6546
:10056000772076616C75652044524F505F49544541
:10057000525B0044524F505F495445525B005D004E
:100580006E65772076616C75652044524F505F44EC
:10059000454C41595B0044524F505F44454C4159D2
:1005A0005B005D006E65772076616C756520445256
:1005B0004F505F434952434C455B0044524F505F9C
:1005C000434952434C455B005D006E657720766180
:1005D0006C7565204C45445F54494D455B004C4566
:1005E000445F54494D455B005D006E657720766140
:1005F0006C75652044524F505F54494D454F5554DA
:100600005B0044524F505F54494D454F55545B0079
:100610005D006E65772076616C75652044454255B6
:10062000475F50524F475B0044454255475F505229
:100630004F475B005245424F4F54005D006E657757
:100640002076616C75652053455249414C5F53508B
:100650004545445B0053455249414C5F5350454525
:10066000445B00524553455420454550524F4D0080
:10067000494E4954003234353331360052455345E2
:1006800054002000496E7075742062797465733A65
:100690002000496E707574206C656E6774683A202E
:1006A000004552524F522C20435550204E4F54205B
:1006B00044455445435445442C2044726F70706542
:1006C000722053746F7073004355502064657465D5
:1006D000637465642C2044726F707065722053746B
:1006E0006F7073004355502064657465637465646E
:1006F0002C2044726F707065722053746F70730099
:1007000053657269616C2064617461207265636510
:10071000697665642C206275666665722072656113
:1007200064790053494D504C455F534E4946462C21
:100730002064726F7070657220616E6420627574DF
:10074000746F6E7320617265206163746976617481
:1007500065640070696E3133206465616374697625
:100760006174656420616674657220636173686C8E
:10077000657373206465766963650070696E3133F3
:100780002064656163746976617465642061667470
:1007900065722062696C6C2076616C696461746F4B
:1007A000720053657474696E6773206C6F61646561
:1007B000642066726F6D20454550524F4D0045458F
:1007C00050524F4D20696E697469616C697A656435
:1007D00020776974682064656661756C7420766141
:1007E0006C756573005D002C0054524947474552B3
:1007F0005B005D002C00434153484C4553535F431D
:100800004845434B5F4954454D5F50524943455B12
:10081000005D002C00434153484C4553535F534502
:10082000545F4954454D5F50524943455B005D005C
:100830002C0042494C4C5F56414C494441544F5264
:100840005F504152414D5B005D0053494D504C4556
:100850005F534E4946465B005D004D41535445523F
:100860005F534E4946465B3132005D004D41505F5B
:100870004D41585B005D004D41505F4D494E5B005E
:100880005D0044524F505F495445525B005D004447
:10089000524F505F44454C41595B005D0044524FFC
:1008A000505F434952434C455B005D004C45445FFB
:1008B00054494D455B005D0044524F505F54494DD3
:1008C000454F55545B005D0044454255475F5052CB
:1008D0004F475B005D0053455249414C5F535045C3
:1008E00045445B0054696D65723120696E697469B5
:1008F000616C697A6564007374617274206D6169FA
:100900006E2070726F6772616D2E2076312E32000C
:100910007374617274206D61696E2070726F67729A
:10092000616D2076312E320077616974206E6577B3
:1009300020636F6E666967004C656473206465614F
:100940006374697661746564004C656473206163E7
:1009500074697661746564005041594D454E542068
:10096000425920434152442C2064726F707065726A
:1009700020616E6420627574746F6E73206172659D
:100980002061637469766174656400427574746F84
:100990006E73206172652061637469766174656449
:1009A0000044726F7070657220616374697661745F
:1009B000696F6E206973206E6F7420616C6C6F7745
:1009C00065640044726F7070657261726520616366
:1009D00074697661746564005468652062696C6C42
:1009E00020697320696E7365727465640042757462
:1009F000746F6E7320646561637469766174656495
:100A00000050554D5020425554544F4E2C20627585
:100A100074746F6E732061726520616374697661AE
:100A20007465640044524F5050455220425554540E
:100A30004F4E2C2064726F70706572206172652059
:100A4000616374697661746564005445535420424F
:100A50005554544F4E2C2064726F70706572206133
:100A60006E6420627574746F6E73206172652061AC
:100A7000637469766174656400427574746F6E7333
:100A800020617265206163746976617465640044F5
:100A9000726F707065722061637469766174696FDA
:100AA0006E206973206E6F7420616C6C6F77656463
:100AB0000044726F707065722061726520616374AA
:100AC0006976617465640056454E4449535441202B
:100AD00054524947474552000000000024002700B7
:100AE0002A0000000000250028002B000000000064
:100AF0002300260029000404040404040404020260
:100B0000020202020303030303030102040810208C
:100B10004080010204081020010204081020000097
:100B200000080002010000030407000000000000AC
:100B30000000972011241FBECFEFD8E0DEBFCDBF4D
:100B400011E0A0E0B1E0E4E7F1E502C005900D920C
:100B5000A438B107D9F723E0A4E8B1E001C01D92A1
:100B6000AF3AB207E1F715E0CAE9D5E004C0219732
:100B7000FE010E94C427C939D107C9F70E942E1867
:100B80000C94B8280C940000833081F028F4813054
:100B900099F08230A9F008958730A9F08830C9F023
:100BA0008430B1F4809180008F7D03C080918000FB
:100BB0008F7780938000089584B58F7784BD0895E2
:100BC00084B58F7DFBCF8091B0008F778093B0008C
:100BD00008958091B0008F7DF9CFCF93DF93282FB8
:100BE00030E0F901E25EF44F8491F901E65FF44FE1
:100BF000D491F901EA50F54FC491CC23A1F08111B1
:100C00000E94C405EC2FF0E0EE0FFF1FE451F54FFA
:100C1000A591B491EC91ED2381E090E009F480E09E
:100C2000DF91CF91089580E090E0FACF1F93CF93AA
:100C3000DF93282F30E0F901E25EF44F8491F9014F
:100C4000E65FF44FD491F901EA50F54FC491CC23FB
:100C5000A9F0162F81110E94C405EC2FF0E0EE0FD1
:100C6000FF1FEE51F54FA591B4918FB7F894EC9119
:100C7000111108C0D095DE23DC938FBFDF91CF9197
:100C80001F910895DE2BF8CFCF93DF9390E0FC0106
:100C9000E65FF44F24918A50954FFC01849188239C
:100CA000D1F090E0880F991FFC01E852F54FA59113
:100CB000B491FC01EE51F54FC591D491623071F4BD
:100CC0009FB7F8943C91822F809583238C93E88181
:100CD0002E2B28839FBFDF91CF9108958FB7F89473
:100CE000EC912E2B2C938FBFF6CF3FB7F8948091C9
:100CF000080390910903A0910A03B0910B0326B554
:100D0000A89B05C02F3F19F00196A11DB11D3FBF43
:100D1000BA2FA92F982F8827BC01CD01620F711D12
:100D2000811D911D42E0660F771F881F991F4A950C
:100D3000D1F708958F929F92AF92BF92CF92DF9298
:100D4000EF92FF924B015C010E9475066B017C01E2
:100D50000E9475066C197D098E099F09683E7340D3
:100D600081059105A8F321E0821A9108A108B10834
:100D700088EEC80E83E0D81EE11CF11C811491049A
:100D8000A104B10429F7FF90EF90DF90CF90BF90BE
:100D9000AF909F908F9008952FB7F89460910403BF
:100DA0007091050380910603909107032FBF08956A
:100DB0000895AF92BF92CF92DF92EF92FF920F937E
:100DC0001F93CF93DF936C017B018B01040F151FE1
:100DD000EB015E01AE18BF08C017D10759F0699149
:100DE000D601ED91FC910190F081E02DC6010995AD
:100DF000892B79F7C501DF91CF911F910F91FF905A
:100E0000EF90DF90CF90BF90AF900895FC014481A8
:100E10005581608171818CE093E00C94D906FC01CE
:100E2000538D448D252F30E0842F90E0821B930B4F
:100E3000541710F0CF96089501970895FC01918DF5
:100E4000828D981761F0A28DAE0FBF2FB11D5D96F8
:100E50008C91928D9F5F9F73928F90E008958FEF9A
:100E60009FEF08950F931F930E94CC066093140385
:100E70007093150380931603909317038CE093E00F
:100E80000E941E0797FF1DC00E94CC06009114030C
:100E9000109115032091160330911703601B710BFD
:100EA000820B930B009110031091110320911203F8
:100EB000309113036017710782079307F8F28FEFE1
:100EC0009FEF1F910F910895FC01918D828D9817CE
:100ED00031F0828DE80FF11D858D90E008958FEF40
:100EE0009FEF0895FC01918D228D892F90E0805C09
:100EF0009F4F821B91098F73992708958CE093E08F
:100F00000E94720721E0892B09F420E0822F0895C6
:100F1000FC01A48DA80FB92FB11DA35ABF4F2C916E
:100F2000848D90E001968F739927848FA689B78965
:100F30002C93A089B1898C91837080648C93938D5C
:100F4000848D981306C00288F389E02D80818F7DFF
:100F500080830895EF92FF920F931F93CF93DF93B7
:100F6000EC0181E0888F9B8D8C8D98131AC0E889E5
:100F7000F989808185FF15C09FB7F894EE89FF89B4
:100F80006083E889F98980818370806480839FBF52
:100F900081E090E0DF91CF911F910F91FF90EF9052
:100FA0000895F62E0B8D10E00F5F1F4F0F73112762
:100FB000E02E8C8D8E110CC00FB607FCFACFE8899D
:100FC000F989808185FFF5CFCE010E948807F1CF96
:100FD000EB8DEC0FFD2FF11DE35AFF4FF0829FB711
:100FE000F8940B8FEA89FB8980818062CFCF0F93C1
:100FF0001F93CF93DF938C01D0E0C0E0F801EC0F9A
:10100000FD1F6491662341F08CE093E00E94AA07E3
:10101000892B11F02196F2CFCE01DF91CF911F9154
:101020000F910895CF93DF93EC01888D8823B9F059
:10103000AA89BB89E889F9898C9185FD03C08081E3
:1010400086FD0DC00FB607FCF7CF8C9185FFF2CF60
:10105000808185FFEDCFCE010E948807E9CFDF9127
:10106000CF9108958F929F92AF92BF920F931F934B
:10107000CF93DF93CDB7DEB7A1970FB6F894DEBF5D
:101080000FBECDBF19A2423008F44AE08E010F5DB9
:101090001F4F842E912CB12CA12CA50194010E94EC
:1010A000B826E62FB901CA01EA3044F5E05DD8015F
:1010B000EE938D01232B242B252B79F790E080E0F4
:1010C000109769F0FD0101900020E9F73197AF0119
:1010D0004A1B5B0BBD018CE093E00E94D906A196F0
:1010E0000FB6F894DEBF0FBECDBFDF91CF911F9139
:1010F0000F91BF90AF909F908F900895E95CD7CFEC
:10110000462F682F70E090E080E00C94320842E0B7
:1011100050E068E471E08CE093E00C94D906CF9342
:10112000DF930E940607EC010E9487088C0F9D1F29
:10113000DF91CF91089520915502309156022130D0
:10114000310511F40C948F080895CF93DF930E941A
:10115000F707EC010E9487088C0F9D1FDF91CF914C
:101160000895CF93DF930E948008EC010E948708C6
:101170008C0F9D1FDF91CF910895CF92DF92EF9258
:10118000FF92CF93DF936C01990FEE08FF08F7FEF3
:1011900019C06DE28CE093E00E94AA07EC0166277B
:1011A0007727CB016C197D098E099F094AE00E94BF
:1011B00032088C0F9D1FDF91CF91FF90EF90DF9051
:1011C000CF9008954AE0C701B601DF91CF91FF901B
:1011D000EF90DF90CF900C943208CF92DF92EF9295
:1011E000FF920F931F93CF93DF93EB017B0124E0DA
:1011F000E20EF11C8B016C01C61AD70AC601800FE2
:10120000911F0E949226F80181938F01EE15FF0530
:10121000A9F7CE01DF91CF911F910F91FF90EF9031
:10122000DF90CF9008950F931F93CF93DF938C019E
:10123000EB010E9492268883C80101960E949226A3
:101240008983CE01DF91CF911F910F910895FF9275
:101250000F931F93CF93DF93EC018B01FB01F08081
:101260000E949226F81621F06F2DCE010E949A2638
:10127000F801F1802196CE010E949226F81621F005
:101280006F2DCE010E949A26C801DF91CF911F9148
:101290000F91FF9008959F92AF92BF92CF92DF92ED
:1012A000EF92FF920F931F93CF93DF935C017B012B
:1012B0008B01D0E0C0E0F80191908F016501CC0E68
:1012C000DD1EC6010E949226981621F0692DC601E6
:1012D0000E949A262196C430D10569F7C701DF9193
:1012E000CF911F910F91FF90EF90DF90CF90BF9023
:1012F000AF909F9008950F931F93CF93DF9304E2D5
:1013000011E0C2E3D0E0F80161918F01CE010E94AB
:101310009A262196C633D105B1F76091220186E362
:1013200090E00E949A266091230187E390E00E945A
:101330009A2660911F0188E390E00E949A266091AE
:10134000200189E390E00E949A26609121018AE3BE
:1013500090E00E949A2600E011E0CCE3D0E0F80192
:1013600061918F01CE010E949A262196C334D10546
:10137000B1F7DF91CF911F910F910895FC0180810A
:101380009181009711F00C941E2360E070E0CB0176
:101390000895FB0144815581FC0124813581241786
:1013A000350778F080819181009759F0FB016081C9
:1013B00071816115710529F00E94AA2821E0892B0D
:1013C00009F020E0822F0895CF93DF93EC0188810C
:1013D0009981009711F00E947E21198218821D8246
:1013E0001C821B821A82DF91CF910895FC018081BB
:1013F0009181009711F00C947E2108950F931F9313
:10140000CF93DF93EC0188819981009759F02A816D
:101410003B812617370730F081E0DF91CF911F9194
:101420000F9108958B016F5F7F4F0E94CA2700972D
:1014300059F0998388831B830A832C813D81232B58
:1014400059F7FC011082E8CF80E0E7CFEF92FF92DE
:101450000F931F93CF93DF936115710541F480E0E3
:10146000DF91CF911F910F91FF90EF90089541155B
:101470005105B1F07B01EC010C811D81040F151F9A
:10148000B8010E94FE09882351F3288139818C819B
:101490009D81B701820F931F0E94A3281D830C8397
:1014A00081E0DECFCF93DF93EC01FB0101900020C0
:1014B000E9F73197AF01461B570B0E94260A8111AD
:1014C00003C0CE010E94E409CE01DF91CF910895BF
:1014D000CF93DF93EC01FB014481558160817181E1
:1014E0000E94260A811103C0CE010E94E409CE01A8
:1014F000DF91CF910895EF92FF920F931F93CF93B7
:10150000DF93EC017B018A01BA010E94FE0981117F
:101510000BC0CE010E94E409CE01DF91CF911F9153
:101520000F91FF90EF9008951D830C83B701888180
:1015300099810E94A328F0CFFB0101900020E9F7D8
:101540003197AF01461B570B0C947B0A0F931F93E7
:10155000CF93DF93CDB7DEB729970FB6F894DEBFF0
:101560000FBECDBF8C01862FF8011182108213822D
:1015700012821582148240E1BE016F5F7F4F90E0BE
:101580000E94A023BE016F5F7F4FC8010E949C0A8A
:1015900029960FB6F894DEBF0FBECDBFDF91CF9175
:1015A0001F910F9108950F931F93CF93DF93CDB7A2
:1015B000DEB762970FB6F894DEBF0FBECDBF8C01C9
:1015C000CB01F801118210821382128215821482DB
:1015D0004AE0BE016F5F7F4F0E945E23BE016F5FD6
:1015E0007F4FC8010E949C0A62960FB6F894DEBF36
:1015F0000FBECDBFDF91CF911F910F9108950F9333
:101600001F93CF93DF93CDB7DEB7A1970FB6F894B2
:10161000DEBF0FBECDBF8C01CB01BA01F801118234
:10162000108213821282158214822AE0AE014F5F6B
:101630005F4F0E947E23BE016F5F7F4FC8010E94F3
:101640009C0AA1960FB6F894DEBF0FBECDBFDF9106
:10165000CF911F910F910895FB01DC0111961C920F
:101660001E9213961C921E92129715961C921E9211
:1016700014978617970749F060817181611571058C
:1016800021F0448155810C947B0A0895FC0111825C
:1016900010821382128215821482FB0101900020B5
:1016A000E9F73197AF01461B570B0C947B0AAF92B9
:1016B000BF92CF92DF92EF92FF920F931F93CF933F
:1016C000DF936C015B017A0189012417350720F44F
:1016D0008F2D7901042F182F6AE471E0C6010E9452
:1016E000460BD5011496CD91DC91EC16FD06E0F485
:1016F0000C171D0708F4E801D501ED91FC91119735
:10170000EC0FFD1F108110826D917C916E0D7F1D7D
:10171000C60161157105A1F00E949C0AF501808146
:101720009181C80FD91F1883C601DF91CF911F91F6
:101730000F91FF90EF90DF90CF90BF90AF90089502
:101740000E94E409EBCFCF92DF92EF92FF92CF930A
:10175000DF93CDB7DEB762970FB6F894DEBF0FBE4A
:10176000CDBF60E08BE00E94160685E480937C008C
:1017700080917A00806480937A0080917A0086FD5F
:10178000FCCFA0917800B0917900C0900B01D0906F
:101790000C01E0900D01F0900E01209107013091B5
:1017A00008014091090150910A012C193D094E0987
:1017B0005F090E9404272FEF33E040E050E00E94D1
:1017C000DA26C20ED31EE41EF51EC092EA02D092A3
:1017D000EB02E092EC02F092ED0261E082E00E9406
:1017E000160681E08093F2020E94CC066093EE021E
:1017F0007093EF028093F0029093F102B701A6017B
:10180000CE0107960E94FF0A6BE471E0CE010196BB
:101810000E94460BBE01695F7F4FCE0101960E9478
:10182000680A63E671E00E94520ABC01CE010D967F
:101830000E942C0BCE010D960E949B08CE010D96A6
:101840000E94F609CE0101960E94F609CE01079684
:101850000E94F60962960FB6F894DEBF0FBECDBFA8
:10186000DF91CF91FF90EF90DF90CF900895EF92AE
:10187000FF920F931F93CF93DF93EC018B0119829B
:1018800018821B821A821D821C82CB010E94552362
:101890007C01BC01CE010E94FE09811109C0CE016C
:1018A000DF91CF911F910F91FF90EF900C94E4097D
:1018B000FD82EC82B80188819981DF91CF911F91DF
:1018C0000F91FF90EF900C944E234F925F926F9286
:1018D0007F92BF92CF92DF92EF92FF920F931F936E
:1018E000CF93DF9300D000D000D0CDB7DEB7B82EB5
:1018F00061E084E00E94160610E000E080910F0194
:1019000090911001081719070CF0BDC061E08BE041
:101910000E9416060E94CC066B017C010E94CC0638
:101920006C197D098E099F09409015015090160190
:10193000609017017090180164157505860597056C
:1019400008F059C08AE00E94ED05892B39F70E9402
:10195000CC0640905F0250906002609061027090EF
:101960006202641975098609970963337105810557
:101970009105B0F160E08BE00E94160660E084E023
:101980000E94160664EE76E0CE0101960E94370CA6
:10199000CE0101960E949B08CE0101960E94F60995
:1019A000BB2051F00E94CC0660932C0170932D0156
:1019B00080932E0190932F0126960FB6F894DEBFE8
:1019C0000FBECDBFDF91CF911F910F91FF90EF9090
:1019D000DF90CF90BF907F906F905F904F90089571
:1019E0000E94CC0660935F02709360028093610254
:1019F0009093620293CF60E08BE00E9416060E94F3
:101A0000CC066B017C010E94CC066C197D098E0905
:101A10009F09409011015090120160901301709045
:101A20001401641575058605970550F58AE00E9436
:101A3000ED05892B41F70E94CC0640905F02509043
:101A400060026090610270906202641975098609F3
:101A50009709633371058105910538F060E084E0F2
:101A60000E94160668EC76E08FCF0E94CC06609349
:101A70005F02709360028093610290936202C3CF11
:101A80000F5F1F4F3BCF60E08BE00E94160660E0C7
:101A900084E00E94160661EA76E0CE0101960E947B
:101AA000370CCE0101960E949B08CE0101960E9440
:101AB000F60980ED9AE8AFEFBFEF80932C01909389
:101AC0002D01A0932E01B0932F0176CF0F931F937A
:101AD000CF93DF93CDB7DEB768970FB6F894DEBF2C
:101AE0000FBECDBF80915702882309F4BDC014E614
:101AF0008CE093E00E947207892B09F4B5C08CE05A
:101B000093E00E941E07082F809153029091540287
:101B1000892B09F451C0E0E0F1E08191081346C03F
:101B200063E277E0CE0101960E94370CCE01019668
:101B30000E949B08CE0101960E94F609602FCE01FB
:101B40000D960E94A60A67E671E0CE0101960E94FA
:101B5000460BBE016F5F7F4FCE0107960E942C0B94
:101B6000BE01635F7F4FCE0107960E94680ABC01E9
:101B7000CE0143960E942C0BCE0143960E949B08F7
:101B8000CE0143960E94F609CE0107960E94F609FF
:101B9000CE0101960E94F609CE010D960E94F6092B
:101BA00081E00E94650C0E94A30BA2CF21E0E730E8
:101BB000F20709F0B2CF9CCF40914F0250915002F2
:101BC00020914D0230914E02149FC001159F900D3F
:101BD00011248B579E4FFC01E20FF31F00832F5FF0
:101BE0003F4F2436310529F030934E0220934D02A9
:101BF0007FCF10924E0210924D0224E6FC01ADE719
:101C0000B2E001900D922A95E1F7FC01212F11928B
:101C10002A95E9F781E090E0452B11F090E080E013
:101C20009093500280934F028091E1029091E202E2
:101C3000A091E302B091E40281608093E10290936D
:101C4000E202A093E302B093E40260E077E0CE0109
:101C500001960E94370CCE0101960E949B08CE018E
:101C600001960E94F60944CF68960FB6F894DEBF3D
:101C70000FBECDBFDF91CF911F910F9108950E94AC
:101C80007E0781110C94660D08958F929F92AF92FA
:101C9000BF92CF92DF92EF92FF920F931F93CF9359
:101CA000DF93CDB7DEB72C970FB6F894DEBF0FBE2B
:101CB000CDBF8C01DC01AD90BC901197A114B10493
:101CC00039F01496ED90FC906501E114F104B9F43B
:101CD000F801E080F180E114F10409F44CC0D7016F
:101CE0008D917D01882309F446C0082E000C990BC4
:101CF0000E948728F70131978083F1CF6401460164
:101D0000BFEF8B1A9B0AF6018081082E000C990BFD
:101D10000E944523892B91F7F1E0EF1AF108EA0CB4
:101D2000FB1CD7018C91082E000C990B0E944523B7
:101D3000892B39F0EC14FD0420F0B1E0EB1AF10826
:101D4000F0CFA7014F5F5F4F4C195D09F801558334
:101D50004483AC14BD0420F4B601C5010E948F2851
:101D6000D801ED91FC91119714968D919C91E80FFB
:101D7000F91F1082ADCF82E996E00E94F707F801C3
:101D80006481758190E080E04AE00E9432080E9400
:101D9000870884E896E00E94F707F12CE12CD8012F
:101DA00014968D919C911597E816F906C0F4ED9163
:101DB000FC91309789F410928401E4E8F1E060E14D
:101DC00070E080810E94800882E896E00E94F70718
:101DD000BFEFEB1AFB0AE3CFEE0DFF1DF0CF0E9421
:101DE00087086CE776E0CE0101960E94370CBE01B1
:101DF0006F5F7F4FC8010E94C909F82ECE0101967E
:101E00000E94F609FF2021F0F0E0E0E009951EC0F5
:101E100065E776E0CE0101960E94370CBE016F5F48
:101E20007F4FC8010E94C909F82ECE0101960E9479
:101E3000F609FF2009F471C081E2F0E0E0E0809350
:101E4000570084916AE070E00E94B10869E171E096
:101E500081E090E00E94270965E572E083E090E070
:101E60000E94270968E271E085E090E00E944B093A
:101E70006BE171E089E090E00E944B0965E171E05F
:101E80008DE090E00E944B0961E171E081E190E01A
:101E90000E944B096FE071E085E190E00E94270904
:101EA0006BE071E087E190E00E944B0967E071E030
:101EB0008BE190E00E944B0968E572E08FE190E0D1
:101EC0000E94270963E572E081E290E00E94270901
:101ED0000E947B0962E671E0CE0101960E94370CF8
:101EE000CE0101960E949B08CE0101960E94F60940
:101EF0000E947B092C960FB6F894DEBF0FBECDBFB3
:101F0000DF91CF911F910F91FF90EF90DF90CF90D5
:101F1000BF90AF909F908F90089560E776E0CE01DC
:101F200001960E94370CBE016F5F7F4FC8010E946F
:101F3000C909F82ECE0101960E94F609FF2089F00A
:101F400083E696E00E94A50810E000E060E0C8018A
:101F50000E949A260F5F1F4F0115F4E01F07B1F78B
:101F600053CF65E576E0CE0101960E94370CBE01A5
:101F70006F5F7F4FC8010E94C909F82ECE010196FC
:101F80000E94F609FF2091F1D80114962D913C9101
:101F9000215031094DE050E0B801CE0101960E9478
:101FA000570BCE0101960E94BE0970931A016093EF
:101FB0001901CE0101960E94F6098DE396E00E9478
:101FC000F7078091190190911A010E94BD088BE3D7
:101FD00096E00E94A50884E396E00E94A50868EEBA
:101FE00073E080E090E00E949A060ECF68E276E00F
:101FF000CE0101960E94370CBE016F5F7F4FC80172
:102000000E94C909F82ECE0101960E94F609FF2010
:1020100041F1D80114962D913C91215031094BE0AA
:1020200050E0B801CE0101960E94570BCE010196F7
:102030000E94BE097093560260935502CE0101962C
:102040000E94F60982E196E00E94F707809155020E
:10205000909156020E94BD0880E196E00E94A5087A
:10206000F5CE62E076E0CE0101960E94370CBE010B
:102070006F5F7F4FC8010E94C909F82ECE010196FB
:102080000E94F609FF2071F1F80124813581215069
:1020900031094DE050E0B801CE0101960E94570B86
:1020A000CE0101960E94BE09609328017093290118
:1020B00080932A0190932B01CE0101960E94F6098C
:1020C0008AEE95E00E94F70760912801709129013E
:1020D00080912A0190912B014AE00E94320888EEFB
:1020E00095E0BCCF6EED75E0CE0101960E94370CF5
:1020F000BE016F5F7F4FC8010E94C909F82ECE0153
:1021000001960E94F609FF2079F1D80114962D91CD
:102110003C912150310949E050E0B801CE010196CF
:102120000E94570BCE0101960E94BE0960931B01CD
:1021300070931C0180931D0190931E01CE010196A6
:102140000E94F6098AEC95E00E94F70760911B0156
:1021500070911C0180911D0190911E014AE00E9426
:10216000320888EC95E07ACF6BEB75E0CE010196F2
:102170000E94370CBE016F5F7F4FC8010E94C909E2
:10218000F82ECE0101960E94F609FF2071F1F801A8
:1021900024813581215031094CE050E0B801CE0155
:1021A00001960E94570BCE0101960E94BE096093D2
:1021B0001501709316018093170190931801CE01B9
:1021C00001960E94F60984EA95E00E94F707609163
:1021D00015017091160180911701909118014AE044
:1021E0000E94320882EA95E039CF66E975E0CE01B7
:1021F00001960E94370CBE016F5F7F4FC8010E949D
:10220000C909F82ECE0101960E94F609FF2079F146
:10221000D80114962D913C91215031094BE050E0AA
:10222000B801CE0101960E94570BCE0101960E9483
:10223000BE09609311017093120180931301909372
:102240001401CE0101960E94F60980E895E00E94F3
:10225000F707609111017091120180911301909123
:1022600014014AE00E9432088EE795E0F7CE63E75A
:1022700075E0CE0101960E94370CBE016F5F7F4F63
:10228000C8010E94C909F82ECE0101960E94F609E4
:10229000FF2029F1F80124813581215031094AE0DC
:1022A00050E0B801CE0101960E94570BCE01019675
:1022B0000E94BE097093100160930F01CE01019638
:1022C0000E94F6098EE595E00E94F70780910F01C4
:1022D000909110010E94BD088CE595E0BFCE63E5AA
:1022E00075E0CE0101960E94370CBE016F5F7F4FF3
:1022F000C8010E94C909F82ECE0101960E94F60974
:10230000FF2079F1D80114962D913C91215031098B
:1023100048E050E0B801CE0101960E94570BCE0173
:1023200001960E94BE0960930B0170930C0180938B
:102330000D0190930E01CE0101960E94F60980E4F2
:1023400095E00E94F70760910B0170910C0180915C
:102350000D0190910E014AE00E9432088EE395E053
:102360007DCE65E375E0CE0101960E94370CBE017B
:102370006F5F7F4FC8010E94C909F82ECE010196F8
:102380000E94F609FF2071F1F80124813581215066
:10239000310948E050E0B801CE0101960E94570B88
:1023A000CE0101960E94BE09609307017093080157
:1023B0008093090190930A01CE0101960E94F609CB
:1023C00082E295E00E94F707609107017091080191
:1023D0008091090190910A014AE00E94320880E24E
:1023E00095E03CCE62E175E0CE0101960E94370C8B
:1023F000BE016F5F7F4FC8010E94C909F82ECE0150
:1024000001960E94F609FF2031F1D80114962D9112
:102410003C91215031094DE050E0B801CE010196C8
:102420000E94570BCE0101960E94BE09709359027B
:1024300060935802CE0101960E94F6098AEF94E05B
:102440000E94F70780915802909159020E94BD089E
:1024500088EF94E003CE6AEE74E0CE0101960E940C
:10246000370CBE016F5F7F4FC8010E94C909F82E6B
:10247000CE0101960E94F609FF2029F1F80124817E
:102480003581215031094DE050E0B801CE0101966F
:102490000E94570BCE0101960E94BE097093540210
:1024A00060935302CE0101960E94F60982ED94E0FA
:1024B0000E94F70780915302909154020E94BD0838
:1024C00080ED94E0CBCD6AEB74E0CE0101960E94E2
:1024D000370CBE016F5F7F4FC8010E94C909F82EFB
:1024E000CE0101960E94F609FF2009F4F8C0D80138
:1024F00014962D913C912150310944E150E0B801EE
:10250000CE0107960E94570B81EB94E00E94F707DB
:10251000CE0107960E948F086AE671E0CE0101960F
:102520000E94460BBE016F5F7F4FCE0107960E944F
:10253000C909182FCE0101960E94F6091123E1F076
:1025400041E050E0BE01695F7F4FCE0101960E94DD
:102550002218BE016F5F7F4FCE0107960E94E917D8
:10256000CE0101960E94F60985E994E00E94F707E2
:10257000CE0107960E948F0870E060E0CE010796BA
:102580000E94CD175C0134E2C32E31E0D32E460108
:10259000F12CE12C10E000E0BFEFAB16BB0609F414
:1025A00046C00430110509F473C09501A701BE01AE
:1025B000695F7F4FCE0101960E94570B83E894E03C
:1025C0000E94F707CE0101960E948F088D819E819F
:1025D000892B41F140E150E070E060E089819A810F
:1025E0000E940722F62EF401608385E794E00E94A2
:1025F000F70760E170E08F2D0E94B1087501FFEFD1
:10260000EF1AFF0AB701CE0107960E94CD175C01B1
:102610000F5F1F4FCE0101960E94F6098FEF881AB7
:10262000980ABACF80E694E00E94A508E7CF04306C
:10263000110571F1A701BE01695F7F4FCE010196BF
:102640000E94221889E494E00E94F707CE010196C7
:102650000E948F088D819E81892BE1F140E150E03D
:1026600070E060E089819A810E940722F62EF801CD
:10267000EC5DFE4F608386E394E00E94F70760E123
:1026800070E08F2D0E94B108CE0101960E94F609DC
:1026900081E094E00E94F70710E000E060E170E064
:1026A000D6018D916D010E9480080330110521F043
:1026B0008FEF93E00E94F7070F5F1F4F0430110563
:1026C00069F78DEF93E00E94A508CE0107960E945E
:1026D000F609BCCB81E294E00E94A508D5CF64EE58
:1026E00073E0CE0101960E94370CBE016F5F7F4FF1
:1026F000C8010E94C909F82ECE0101960E94F60970
:10270000FF2009F4EBC0F801248135812150310903
:1027100047E150E0B801CE0107960E94570B8BEDC0
:1027200093E00E94F707CE0107960E948F086AE6A1
:1027300071E0CE0101960E94460BBE016F5F7F4F94
:10274000CE0107960E94C909182FCE0101960E945A
:10275000F6091123E1F041E050E0BE01695F7F4FCF
:10276000CE0101960E942218BE016F5F7F4FCE01FD
:1027700007960E94E917CE0101960E94F6098FEB99
:1027800093E00E94F707CE0107960E948F0870E041
:1027900060E0CE0107960E94CD176C0122E2A22EC6
:1027A00021E0B22EF12CE12C10E000E0FFEFCF167B
:1027B000DF0609F446C00230110509F473C0960122
:1027C000A701BE01695F7F4FCE0101960E94570BA2
:1027D0008DEA93E00E94F707CE0101960E948F08D0
:1027E0008D819E81892B41F140E150E070E060E0F5
:1027F00089819A810E940722F62ED5016C938FE978
:1028000093E00E94F70760E170E08F2D0E94B1080D
:102810007601BFEFEB1AFB0AB701CE0107960E94C3
:10282000CD176C010F5F1F4FCE0101960E94F60974
:10283000EFEFAE1ABE0ABACF8AE893E00E94A5086D
:10284000E7CF0230110571F1A701BE01695F7F4F2B
:10285000CE0101960E94221883E793E00E94F707B9
:10286000CE0101960E948F088D819E81892B89F16E
:1028700040E150E070E060E089819A810E94072287
:10288000F62EF801EE5DFE4F608380E693E00E9435
:10289000F70760E170E08F2D0E94B108CE0101962C
:1028A0000E94F60988E293E00E94F70760E170E079
:1028B000809122010E94800886E293E00E94F7073F
:1028C00060E170E0809123010E94800884E293E03F
:1028D000FACE8BE493E00E94A508E0CF69E073E0B4
:1028E000CE0101960E94370CBE016F5F7F4FC80179
:1028F0000E94C909F82ECE0101960E94F609FF2018
:1029000009F4F6C0D80114962D913C91215031095B
:1029100049E150E0B801CE0107960E94570B80E0D4
:1029200093E00E94F707CE0107960E948F086AE69F
:1029300071E0CE0101960E94460BBE016F5F7F4F92
:10294000CE0107960E94C909182FCE0101960E9458
:10295000F6091123E1F041E050E0BE01695F7F4FCD
:10296000CE0101960E942218BE016F5F7F4FCE01FB
:1029700007960E94E917CE0101960E94F60984EE9F
:1029800092E00E94F707CE0107960E948F0870E040
:1029900060E0CE0107960E94CD176C019FE1A92E41
:1029A00091E0B92EF12CE12C10E000E0BFEFCB1646
:1029B000DB0609F446C00330110509F473C0960123
:1029C000A701BE01695F7F4FCE0101960E94570BA0
:1029D00082ED92E00E94F707CE0101960E948F08D7
:1029E0008D819E81892B41F140E150E070E060E0F3
:1029F00089819A810E940722F62EF501608384EC7A
:102A000092E00E94F70760E170E08F2D0E94B1080C
:102A10007601FFEFEF1AFF0AB701CE0107960E9479
:102A2000CD176C010F5F1F4FCE0101960E94F60972
:102A30008FEFA81AB80ABACF8FEA92E00E94A508D1
:102A4000E7CF0330110571F1A701BE01695F7F4F28
:102A5000CE0101960E94221888E992E00E94F707B1
:102A6000CE0101960E948F088D819E81892BD9F11C
:102A700040E150E070E060E089819A810E94072285
:102A8000F62EF801E15EFE4F608385E892E00E9439
:102A9000F70760E170E08F2D0E94B108CE0101962A
:102AA0000E94F6098BE492E00E94F70760E170E073
:102AB00080911F010E94800889E492E00E94F7073C
:102AC00060E170E0809120010E94800889E492E03A
:102AD0000E94F70760E170E0809121010E94800868
:102AE00087E492E0F0CD80E792E00E94A508D6CF7F
:102AF0006EE372E0CE0101960E94370CBE016F5F5B
:102B00007F4FC8010E94C909F82ECE0101960E948C
:102B1000F609FF2009F4F2C0D80114962D913C91DA
:102B20002150310948E050E0B801CE0107960E94DB
:102B3000570B85E392E00E94F707CE0107960E94AB
:102B40008F086AE671E0CE0101960E94460BBE0135
:102B50006F5F7F4FCE0107960E94C909182FCE01E3
:102B600001960E94F6091123E1F041E050E0BE0118
:102B7000695F7F4FCE0101960E942218BE016F5FF0
:102B80007F4FCE0107960E94E917CE0101960E9461
:102B9000F60989E192E00E94F707CE0107960E94AC
:102BA0008F0870E060E0CE0107960E94CD175C01AF
:102BB00080E0C82E81E0D82E4601F12CE12C10E0F7
:102BC00000E0BFEFAB16BB0609F446C007301105A5
:102BD00009F473C09501A701BE01695F7F4FCE0163
:102BE00001960E94570B87E092E00E94F707CE0102
:102BF00001960E948F088D819E81892B41F140E1D1
:102C000050E070E060E089819A810E940722F62EF0
:102C1000F401608389EF91E00E94F70760E170E0C2
:102C20008F2D0E94B1087501FFEFEF1AFF0AB7015F
:102C3000CE0107960E94CD175C010F5F1F4FCE019A
:102C400001960E94F6098FEF881A980ABACF84EE8F
:102C500091E00E94A508E7CF0730110571F1A701A7
:102C6000BE01695F7F4FCE0101960E9422188DEC54
:102C700091E00E94F707CE0101960E948F088D8196
:102C80009E81892BB1F140E150E070E060E08981E4
:102C90009A810E940722F62EF801E050FF4F6083D0
:102CA0008AEB91E00E94F70760E170E08F2D0E94AF
:102CB000B108CE0101960E94F60982E991E00E94D6
:102CC000F70710E000E060E170E0D6018D916D0142
:102CD0000E9480080630110521F080E991E00E94F1
:102CE000F7070F5F1F4F0730110569F78EE891E076
:102CF000EACC85EA91E00E94A508DBCF8DE791E060
:102D00000E94F707C8010E9406078BE791E0A6C959
:102D10001F920F920FB60F9211242F933F938F9310
:102D20009F93AF93BF938091040390910503A0916B
:102D30000603B09107033091030323E0230F2D37DF
:102D400058F50196A11DB11D209303038093040340
:102D500090930503A0930603B093070380910803A3
:102D600090910903A0910A03B0910B030196A11D54
:102D7000B11D8093080390930903A0930A03B093B5
:102D80000B03BF91AF919F918F913F912F910F9026
:102D90000FBE0F901F90189526E8230F0296A11DD5
:102DA000B11DD2CF1F920F920FB60F9211242F9305
:102DB0003F934F935F936F937F938F939F93AF93C3
:102DC000BF93EF93FF938CE093E00E948807FF91FD
:102DD000EF91BF91AF919F918F917F916F915F9193
:102DE0004F913F912F910F900FBE0F901F9018950C
:102DF0001F920F920FB60F9211242F938F939F93D0
:102E0000EF93FF93E0911C03F0911D038081E0910B
:102E10002203F091230382FD1BC090818091250342
:102E20008F5F8F7320912603821741F0E091250375
:102E3000F0E0E45FFC4F958F80932503FF91EF91C5
:102E40009F918F912F910F900FBE0F901F9018950B
:102E50008081F4CF1F920F920FB60F921124CF9260
:102E6000DF92EF92FF922F933F934F935F936F9375
:102E70007F938F939F93AF93BF93EF93FF93CF93E2
:102E8000DF93CDB7DEB72697DEBFCDBFC090E1029E
:102E9000D090E202E090E302F090E402C1FE2BC089
:102EA0008091510290915202019690935202809328
:102EB0005102029701F560E08DE00E941606E89449
:102EC000C1F8C092E102D092E202E092E302F092F5
:102ED000E40210925202109251026BE777E0CE01A9
:102EE00001960E94370CCE0101960E949B08CE01EC
:102EF00001960E94F609C090E102D090E202E090B3
:102F0000E302F090E402C3FE2BC080915102909145
:102F1000520201969093520280935102029701F55A
:102F200060E08DE00E941606E894C3F8C092E102CA
:102F3000D092E202E092E302F092E4021092520296
:102F40001092510263E577E0CE0101960E94370CA2
:102F5000CE0101960E949B08CE0101960E94F609BF
:102F600026960FB6F894DEBF0FBECDBFDF91CF918E
:102F7000FF91EF91BF91AF919F918F917F916F9151
:102F80005F914F913F912F91FF90EF90DF90CF9005
:102F90000F900FBE0F901F901895CF93DF93FC01F9
:102FA000248135816217730788F49B01C081D18128
:102FB0006CE270E0CE01820F931F0E949828009768
:102FC00029F08C1B9D0BDF91CF9108958FEF9FEF20
:102FD000FACF0F931F93CF93DF938C01EB01FC018A
:102FE000808191810097E1F0688179816115710597
:102FF000A9F0428153812C813D814217530770F023
:103000000E94A3288C819D81F801958384831D8271
:103010001C82DF91CF911F910F9108950E947E2114
:1030200088819981F801918380838A819B81938330
:1030300082838C819D8195838483198218821B826F
:103040001A82E5CFCF93DF93EC01FB012481358118
:103050000E94570BCE01DF91CF910895CF93DF935C
:10306000CDB7DEB7E9970FB6F894DEBF0FBECDBF80
:10307000789484B5826084BD84B5816084BD85B553
:10308000826085BD85B5816085BD80916E0081605F
:1030900080936E0010928100809181008260809305
:1030A0008100809181008160809381008091800007
:1030B0008160809380008091B10084608093B10032
:1030C0008091B00081608093B00080917A0084602C
:1030D00080937A0080917A00826080937A00809158
:1030E0007A00816080937A0080917A008068809372
:1030F0007A001092C10061E08BE00E94440661E01A
:1031000082E00E94440662E08CE00E94440662E095
:1031100089E00E94440662E08AE00E94440661E081
:1031200083E00E94440661E084E00E94440661E07E
:103130008DE00E94440662E085E00E94440662E061
:1031400086E00E94440661E087E00E94440660E059
:103150008BE00E94160660E082E00E94160660E0A6
:1031600083E00E94160660E084E00E94160660E09C
:103170008DE00E94160660E087E00E94160685E05A
:103180000E94ED058C0186E00E94ED05082B192BAD
:103190000115110529F560E0C8010E949A260F5F0C
:1031A0001F4F011524E01207B1F704E110E060E0C1
:1031B00082E00E94160668EC70E080E090E00E94D9
:1031C0009A0661E082E00E94160668EC70E080E0FA
:1031D00090E00E949A060150110949F7F8010995FB
:1031E00090E080E00E949226853509F487C265E56B
:1031F00090E080E00E949A2669E171E081E090E031
:103200000E94270965E572E083E090E00E942709AB
:1032100068E271E085E090E00E944B096BE171E0AB
:1032200089E090E00E944B0965E171E08DE090E05B
:103230000E944B0961E171E081E190E00E944B093D
:103240006FE071E085E190E00E9427096BE071E09A
:1032500087E190E00E944B0967E071E08BE190E02C
:103260000E944B0968E572E08FE190E00E94270917
:1032700063E572E081E290E00E9427090E947B09E9
:103280006EEB77E0CE0101960E94370CCE010196DD
:103290000E949B08CE0101960E94F60968EE73E039
:1032A00080E090E00E949A06C0901901D0901A0127
:1032B0000D2C000CEE08FF0860E079E08DE390E053
:1032C000A70196010E94B8262150310941095109F0
:1032D0005695479537952795E0911C03F0911D036E
:1032E00082E080832115F0E13F07A8F0E0911C0304
:1032F000F0911D03108260E874E88EE190E0A70170
:1033000096010E94B826215031094109510956956C
:10331000479537952795E0911803F091190330836D
:10332000E0911A03F0911B03208310922403E09193
:103330002003F091210386E08083E0911E03F09149
:103340001F03808180618083E0911E03F0911F0341
:10335000808188608083E0911E03F0911F0380814B
:1033600080688083E0911E03F0911F0380818F7D30
:1033700080830E94CC0686ED98E00E94F70760915A
:10338000190170911A019E012F5F3F4F7901C90108
:103390000E94D30AC7010E940607C7010E94F609CE
:1033A00084ED98E00E94A50888EC98E00E94F70759
:1033B0006091550270915602C7010E94D30AC7015D
:1033C0000E940607C7010E94F60986EC98E00E9459
:1033D000A50888EB98E00E94F707409128015091DA
:1033E000290160912A0170912B01C7010E94FF0AF7
:1033F000C7010E940607C7010E94F60986EB98E004
:103400000E94A5088CEA98E00E94F70740911B01F2
:1034100050911C0160911D0170911E01C7010E9415
:10342000FF0AC7010E940607C7010E94F6098AEA3F
:1034300098E00E94A5088DE998E00E94F707409166
:103440001501509116016091170170911801C70183
:103450000E94FF0AC7010E940607C7010E94F609E1
:103460008BE998E00E94A5088FE898E00E94F70792
:10347000409111015091120160911301709114015A
:10348000C7010E94FF0AC7010E940607C7010E94E8
:10349000F6098DE898E00E94A50882E898E00E946D
:1034A000F70760910F0170911001C7010E94D30AC4
:1034B000C7010E940607C7010E94F60980E898E04C
:1034C0000E94A50887E798E00E94F70740910B014A
:1034D00050910C0160910D0170910E01C7010E9485
:1034E000FF0AC7010E940607C7010E94F60985E787
:1034F00098E00E94A5088CE698E00E94F7074091AA
:103500000701509108016091090170910A01C701FA
:103510000E94FF0AC7010E940607C7010E94F60920
:103520008AE698E00E94A5088AE598E00E94F707DD
:1035300088E598E00E94A5088AE498E00E94F707D1
:103540006091530270915402C7010E94D30AC701CF
:103550000E940607C7010E94F60988E498E00E94CD
:10356000A50882E398E00E94F70754E2C52E51E0D7
:10357000D52E10E000E0F60161916F01C7010E94B5
:10358000A60AC7010E940607C7010E94F609033078
:10359000110521F080E398E00E94F7070F5F1F4FAD
:1035A0000430110541F78EE298E00E94A50885E1FC
:1035B00098E00E94F70760912201C7010E94A60AC5
:1035C000C7010E940607C7010E94F60983E198E03F
:1035D0000E94F70760912301C7010E94A60AC70154
:1035E0000E940607C7010E94F60981E198E00E9447
:1035F000A50886EF97E00E94F7074FE1C42E41E04F
:10360000D42E10E000E0F60161916F01C7010E9425
:10361000A60AC7010E940607C7010E94F6090230E8
:10362000110521F084EF97E00E94F7070F5F1F4F0D
:103630000330110541F782EF97E00E94A50889EE5B
:1036400097E00E94F70730E0C32E31E0D32E10E060
:1036500000E0F60161916F01C7010E94A60AC7014F
:103660000E940607C7010E94F6090630110521F0E5
:1036700087EE97E00E94F7070F5F1F4F0730110595
:1036800041F785EE97E00E94A50888E299E00E9444
:10369000A5080E94CC064B015C0128EE422E23E0D7
:1036A000522E612C712C0E94CC06681979098A0966
:1036B0009B09603177428105910508F0D6C08CE006
:1036C00093E00E947207892B09F4B1C06AE471E0AB
:1036D000CE0182960E94460B0E94320797FD93C04E
:1036E0008A30910509F48FC089831A8241E050E045
:1036F000B701CE0182960E94260AEECF69E171E001
:1037000081E090E00E94130965E572E083E090E0BB
:103710000E94130968E271E085E090E00E94ED08E4
:103720006BE171E089E090E00E94ED0865E171E0F5
:103730008DE090E00E94ED0861E171E081E190E0B0
:103740000E94ED086FE071E085E190E00E941309AE
:103750006BE071E087E190E00E94ED0867E071E0C6
:103760008BE190E00E94ED0868E572E08FE190E067
:103770000E94130963E572E081E290E00E94130960
:10378000F4E2EF2EF1E0FF2E02E310E0C8010E9408
:103790009226F70181937F010F5F1F4F06331105BA
:1037A000A9F786E390E00E9492268093220187E3A6
:1037B00090E00E9492268093230188E390E00E948B
:1037C000922680931F0189E390E00E9492268093C5
:1037D00020018AE390E00E94922680932101E0E09C
:1037E000EE2EE1E0FE2E0CE310E0C8010E949226CE
:1037F000F70181937F010F5F1F4F03341105A9F774
:1038000062EA77E03FCDBE016E5D7F4FC7010E9447
:103810002C0BC7010E94450EC7010E94F6090E94A9
:10382000CC064B015C01CE0182960E94F6090E94F3
:10383000CC06681979098A099B09A30192010E94A3
:10384000B8266AE070E080E090E0621B730B840BA6
:10385000950B4AE00E9432080E94870868EE73E0E8
:1038600080E090E00E949A061ECF81E2F0E0E0E066
:103870008093570084912091580230915902821709
:10388000130609F05BC280E199E00E94A50881E07F
:10389000809357028091A9039091AA03009711F495
:1038A0008FEA93E09701281B390BC9010E94BD08DC
:1038B0000E948708F894109280001092810088E09E
:1038C0009DE39093890080938800809181008860B7
:1038D000809381008091810081608093810080913C
:1038E000810084608093810080916F00826080936A
:1038F0006F00789464EE78E0C7010E94370CC7012E
:103900000E949B08C7010E94F60988EE482E83E0BA
:10391000582E612C712C98E2C92E91E0D92E8CE0A2
:103920000E94ED05892B09F060C00E94CC06009131
:10393000FF02109100032091010330910203601BEC
:10394000710B820B930B653F71408105910508F463
:1039500042C067EC7AE0C7010E94370CC7010E94A1
:103960009B08C7010E94F6090E94CC0600912C0119
:1039700010912D0120912E0130912F01601B710BB0
:10398000820B930B009128011091290120912A01AB
:1039900030912B01601771078207930708F4D1C19A
:1039A00061EB7AE0C7010E94370CC7010E949B08B7
:1039B000C7010E94F60981E00E94650C69E77AE080
:1039C000C7010E94370CC7010E949B08C7010E94D3
:1039D000F6090E94A30B0E94CC066093FF0270932D
:1039E0000003809301039093020389E00E94ED0598
:1039F000892B69F50E94CC060091FB021091FC0214
:103A00002091FD023091FE02601B710B820B930B23
:103A1000633371058105910580F06AE47AE0C7019E
:103A20000E94370CC7010E949B08C7010E94F6093B
:103A300080E00E94650C0E94A30B0E94CC0660935C
:103A4000FB027093FC028093FD029093FE0285E0DE
:103A50000E94ED05892B59F50E94CC060091F702D2
:103A60001091F8022091F9023091FA02601B710B5B
:103A7000820B930B633371058105910570F064E24D
:103A80007AE0C7010E94370CC7010E949B08C7015A
:103A90000E94F60980E00E94650C0E94CC066093AB
:103AA000F7027093F8028093F9029093FA0286E08D
:103AB0000E94ED05892B51F50E94CC060091F3027E
:103AC0001091F4022091F5023091F602601B710B07
:103AD000820B930B633371058105910568F061E0FA
:103AE0007AE0C7010E94370CC7010E949B08C701FA
:103AF0000E94F6090E94A30B0E94CC066093F30279
:103B00007093F4028093F5029093F6028091F20292
:103B1000882309F4E7C00E94CC060091EE021091C0
:103B2000EF022091F0023091F102601B710B820BC9
:103B3000930B0091EA021091EB022091EC0230917C
:103B4000ED026017710782079307D0F060E082E012
:103B50000E94160660E083E00E9416061092F202B0
:103B60006DEE79E0C7010E94370CC7010E949B08E7
:103B7000C7010E94F6098091F202882309F4B2C0BD
:103B80000E94CC060091E6021091E7022091E80223
:103B90003091E902601B710B820B930B643F714003
:103BA0008105910508F49EC06091E50281E06827D7
:103BB0006093E50283E00E9416060E94CC066093A3
:103BC000E6027093E7028093E8029093E902809006
:103BD000EE029090EF02A090F002B090F1020E94ED
:103BE000CC060091EA021091EB022091EC02309198
:103BF000ED02800E911EA21EB31EA5019401261B8C
:103C0000370B480B590BCA01B9010E94062620E068
:103C100030E04AE754E40E9452271DAA1CAA1FAABA
:103C20001EAA19AE18AE870120E042E00E94C4200F
:103C3000009709F4C9C0BC01CE01C4960E949C0A39
:103C40008091E502882309F449C0BE016C5C7F4F76
:103C5000CE0182960E942C0B6091EA027091EB02D9
:103C60008091EC029091ED02A30192010E94B8268E
:103C7000BA01A901CE0188960E94FF0A6BE471E0A7
:103C8000CE018E960E94460BBE01685D7F4FCE012D
:103C90008E960E94680A6CE671E00E94520ABE018C
:103CA0006E5D7F4F0E94680A6DE771E00E94520AC4
:103CB000BC01C7010E942C0BC7010E949B08C701D1
:103CC0000E94F609CE018E960E94F609CE018896D2
:103CD0000E94F609CE0182960E94F609CE01C49692
:103CE0000E94F6098091E1029091E202A091E30224
:103CF000B091E40280FFA1C18E7F8093E102909396
:103D0000E202A093E302B093E40209E612E0F801B4
:103D10009081809124019813C1C080916702909195
:103D20006802E4E2F1E0D801CE16DF0609F451C0E2
:103D30003D9121913213F8CF0196F6CF87EF98E0AD
:103D4000A4CD6FE87AE0C7010E94370CC7010E943A
:103D50009B08C7010E94F60940912C0150912D014A
:103D600060912E0170912F01C7010E94FF0AC701C7
:103D70000E949B08C7010E94F6090E94CC06AB0175
:103D8000BC01C7010E94FF0AC7010E949B08C7012E
:103D90000E94F6090E94CC0600912C0110912D0181
:103DA00020912E0130912F01AB01BC01401B510B22
:103DB000620B730BC7010E94FF0AC7010E949B0898
:103DC000C7010E94F609FACDCE01C4960E94E4090B
:103DD00037CF9093680280936702049709F05AC026
:103DE0008090E1029090E202A090E302B090E402A1
:103DF00081FC50C061E08DE00E941606689481F855
:103E00008092E1029092E202A092E302B092E40278
:103E100068ED79E0C7010E94370CC7010E949B083A
:103E2000C7010E94F6090E94CC0680902C01909058
:103E30002D01A0902E01B0902F01681979098A09EF
:103E40009B098090280190902901A0902A01B090B0
:103E50002B01681579058A059B0508F461C063ECA0
:103E600079E0C7010E94370CC7010E949B08C70177
:103E70000E94F60981E00E94650C6BE879E0C701B9
:103E80000E94370CC7010E949B08C7010E94F609D7
:103E90000E94A30B1092680210926702F801208121
:103EA0008091220128131CC09181809123019813D5
:103EB00017C08091E1029091E202A091E302B091DB
:103EC000E40232813093650233813093660284606C
:103ED0008093E1029093E202A093E302B093E402A4
:103EE0008090E1029090E202A090E302B090E402A0
:103EF00082FE93C080911F0128138FC080916302BE
:103F000090916402EFE1F1E0D80121E0E232F207A2
:103F100009F449C03D9121913213F7CF0196F5CFB5
:103F200061EA79E0C7010E94370CC7010E949B0833
:103F3000C7010E94F60940912C0150912D0160911A
:103F40002E0170912F01C7010E94FF0AC7010E9434
:103F50009B08C7010E94F6090E94CC06AB01BC0178
:103F6000C7010E94FF0AC7010E949B08C7010E9467
:103F7000F6090E94CC0680902C0190902D01A09013
:103F80002E01B0902F01AB01BC01481959096A09F3
:103F90007B09C7010E94FF0AC7010E949B08C70155
:103FA0000E94F6096ACF909364028093630203979C
:103FB00081F590916502F801838198132AC0909150
:103FC00066028481981325C083FC23C061E08DE0E4
:103FD0000E941606E89482F8689483F88092E102C1
:103FE0009092E202A092E302B092E40268E579E0E6
:103FF000CE0101960E94370CCE0101960E949B08CB
:10400000CE0101960E94F60980E00E94650C0E9494
:10401000A30B10926402109263020F5F1F4FF2E035
:10402000013E1F0709F073CE84E1EDECF2E0A9E652
:10403000B2E001900D928A95E1F78AE00E94ED05C9
:10404000892BE9F510915E020E94CC0680905F02F8
:1040500090906002A0906102B090620268197909A4
:104060008A099B096333710581059105F0F01111EF
:104070001CC061E087E00E9416060E94CC06609397
:104080005A0270935B0280935C0290935D0281E020
:1040900080935E0269E479E0C7010E94370CC70192
:1040A0000E949B08C7010E94F6090E94CC066093FB
:1040B0005F0270936002809361029093620280912C
:1040C0005E02882361F10E94CC0600915A02109191
:1040D0005B0220915C0230915D02601B710B820BD0
:1040E000930B00911B0110911C0120911D01309137
:1040F0001E01601771078207930788F060E087E070
:104100000E94160610925E0268E379E0C7010E94E1
:10411000370CC7010E949B08C7010E94F6090E9444
:104120007E07882309F4FBCB0E94660DF8CBECE0F8
:10413000F3E01382128288EE93E0A0E0B0E0848383
:104140009583A683B7838AE391E09183808385EC8E
:1041500090E09587848784EC90E09787868780EC51
:1041600090E0918B808B81EC90E0938B828B82EC42
:1041700090E0958B848B86EC90E0978B868B118EEC
:10418000128E138E148E0895EF920F931F93CF9378
:10419000DF93E80134E047FD34E1042E000C550BB9
:1041A00057FF03C0519541955109E32E022F242F4B
:1041B000AE010E94BA23CE01DF91CF911F910F91E2
:1041C000EF9008950F931F93CF93DF938230910563
:1041D00010F482E090E0E091AB03F091AC0330E0AA
:1041E00020E0B0E0A0E0309799F42115310509F402
:1041F0004AC0281B390B24303105D8F58A819B81B0
:104200006115710589F1FB0193838283FE0111C061
:10421000408151810281138148175907E0F0481706
:10422000590799F4109761F012960C931297139610
:104230001C933296CF01DF91CF911F910F9108957A
:104240000093AB031093AC03F4CF2115310551F06B
:104250004217530738F0A901DB019A01BD01DF01C4
:10426000F801C1CFEF01F9CF9093AC038093AB037A
:10427000CDCFFE01E20FF31F8193919322503109BC
:1042800039832883D7CF2091A9033091AA03232B08
:1042900041F420913201309133013093AA032093ED
:1042A000A90320913001309131012115310541F4EC
:1042B0002DB73EB74091340150913501241B350B89
:1042C000E091A903F091AA03E217F307A0F42E1BD3
:1042D0003F0B2817390778F0AC014E5F5F4F24176A
:1042E000350748F04E0F5F1F5093AA034093A90370
:1042F000819391939FCFF0E0E0E09CCFCF93DF9349
:104300000097E9F0FC01329713821282A091AB036F
:10431000B091AC03ED0130E020E01097A1F42081D2
:104320003181820F931F2091A9033091AA0328178E
:10433000390709F061C0F093AA03E093A903DF9164
:10434000CF910895EA01CE17DF07E8F54A815B8136
:104350009E0141155105B1F7E901FB83EA834991BB
:104360005991C40FD51FEC17FD0761F4808191812D
:104370000296840F951FE901998388838281938136
:104380009B838A83F0E0E0E012968D919C911397D5
:104390000097B9F52D913C911197CD010296820FAE
:1043A000931F2091A9033091AA032817390739F6E2
:1043B000309751F51092AC031092AB03B093AA035F
:1043C000A093A903BCCFD383C28340815181840FC2
:1043D000951FC817D90761F44E5F5F4F8881998197
:1043E000480F591F518340838A819B819383828325
:1043F0002115310509F0B0CFF093AC03E093AB0386
:104400009ECFFD01DC01C0CF13821282D7CFB0E076
:10441000A0E0EDE0F2E20C940D275C016B017A0163
:104420006115710519F0FB0191838083E114F1049A
:1044300051F0C7010297839730F040E030E020E070
:1044400090E072C05E01E5012196F5011081812F97
:1044500090E00E944523892BA9F71D3201F5219692
:10446000F501118101E0E114F10409F4DAC0F0E191
:10447000EF16F10409F082C0103359F488818F7D62
:10448000883509F076C0198122960260F0E1EF2E9E
:10449000F12C812C912CA12C88E0B82E8CC01B32E1
:1044A00021F4E5012296F501118100E0DCCFEAE07C
:1044B000EE16F10409F4BBC0F0E1EF16F10409F0C7
:1044C0006DC0E7CF78E0E72EF12C812C912CA12C48
:1044D00060E1B62E70C03FE9310F3A3128F439EA75
:1044E000332E80C021E09AC0302F3170C114D10426
:1044F00031F0222309F12197F601D183C08327FFF0
:1045000021C060E070E080E090E8311104C06FEFFE
:104510007FEF8FEF9FE722E230E03093AE032093EE
:10452000AD03462F372F282F642F732F822FCDB73F
:10453000DEB7E1E10C94292701FF04C02297F601C0
:10454000D183C083332341F0909580957095619518
:104550007F4F8F4F9F4FE5CF97FFE3CF82E290E0F1
:104560009093AE038093AD036FEF7FEF8FEF9FE7E4
:10457000D8CF10E3E114F10409F4A4CF28E0E21647
:10458000F10409F4A2CF0CF092CF812C912CA12C34
:10459000E0E4BE2E82E0E816F10469F060E070E02D
:1045A00080E090E897010F2C000C440B550B0E9403
:1045B000B82649015A0120E060E070E0CB012701F4
:1045C0000F2C000C66087708FE0150ED352E310ED9
:1045D00039E0331540F43FEB310F3A3108F07BCF2F
:1045E00049EC342E310E3E141F040CF07DCF27FD14
:1045F00015C086169706A806B90678F0A3019201A1
:104600000E94A826630D711D811D911D61307105E9
:10461000810520E8920708F465CF2FEF21961081DD
:10462000D3CF103309F42ACF2AE0E22EF12C9CECF0
:10463000892E982CA82C9CE0B92EBDCF1F93FC018D
:1046400099278827BC01E89411911032E9F31930B9
:1046500010F01E30C8F31B3251F01D3249F468943B
:1046600006C00E946923610F711D811D911D11916A
:1046700010531A30B0F33EF4909580957095619583
:104680007F4F8F4F9F4F1F91089591110C94F125EB
:10469000803219F089508550C8F70895FB01DC017C
:1046A00005900D920020E1F70895FC01059000208F
:1046B000E9F7809590958E0F9F1F0895BB274A308C
:1046C00031F4992322F4BDE2909581959F4F0C948B
:1046D000A123592F482F372F262F660F771F881FAA
:1046E000991F660F771F881F991F620F731F841F02
:1046F000951F660F771F881F991F0895BB27FA0122
:10470000A62F6217710581059105330B30FB66F00A
:10471000AA27660F771F881F991FAA1FA21710F0DC
:10472000A21B63953850A9F7A05DAA3308F0A95DD4
:10473000A19336F7B111B1931082CA010C94F425FC
:10474000BB27FB015527AA27880F991FAA1FA4176B
:1047500010F0A41B83955051B9F7A05DAA3308F05F
:10476000A95DA193009779F7B111B1931192CB0193
:104770000C94F425A9E0B0E0E0ECF3E20C941227ED
:104780006A01F22EB02E102FFBE3AF2EA01608F414
:104790001BE31F5F012F27E0AE014F5F5F4F0E94B9
:1047A0001925BC018981982F9970913009F43FC077
:1047B0009BE2E1FC04C09E2D9170E0FC3AC05E2DAE
:1047C0005071E82FE87083FF46C084E0911101C06A
:1047D00083E0EF2DE81B8F1508F0E0E0D6018E2F67
:1047E00020E2552351F1992329F0D6019C93C6016B
:1047F00001966C0196012D5F3F4FE2FE24C08EE4CE
:10480000D6018C9391E411969C93119712968C93F8
:10481000D9018E2F90E281111BC0E20FF32FF11D01
:1048200010828EEF9FEF2996ECE00C942E279DE2EC
:10483000C6CF90E2C4CF2D9381508111FCCFCE0E14
:10484000D11CE0E0D0CF8EE6D6018C9391E6DBCF91
:104850009D938150E0CF482F447082FF3DC084E09B
:10486000911101C083E08F1510F4EF2DE81BD601E4
:104870008E2F20E2552309F1992329F0D6019C932C
:10488000C60101966C0196012D5F3F4FE2FE1BC0F1
:1048900089E4D6018C938EE411968C93119786E46B
:1048A00012968C93D9018E2F90E2882309F4B5CF0C
:1048B0009D938150FACF2D9381508111FCCFCE0E64
:1048C000D11CE0E0D9CF89E6D6018C938EE6119613
:1048D0008C93119786E6E4CF9B0177FF02C030E00E
:1048E00020E0A1E0B0E0911102C0B0E0A0E0F90149
:1048F0003196AE0FBF1F8B2C912CBB2009F461C0E9
:104900005401EFEFAE1ABE0AAA0DBB1DFA161B0624
:1049100019F014F04F2D4A1B511188C0E3FC59C007
:104920007601A42FB0E2A1114FC0C40ED11C99236F
:1049300009F45BC040E0D6011196F60190836D0149
:10494000552309F448C0012F060F9A81582F507142
:1049500084FF03C0913309F4015010160CF047C0D6
:10496000093008F008E0EEE2FE2E5B01A01AB10863
:1049700085019194819491082F3F320729F4D60143
:10498000FC92F60131966F016217730794F10217DA
:1049900013077CF5DB01A21BB30BAA24A394B12C53
:1049A000AC0EBD1EAA0DBB1D11968C912150310974
:1049B000D601119628153905F4F0F60180836D01B2
:1049C000DBCFB12CA12CA0CFF701B1937F01A15077
:1049D000AACF9111B0CFD601942F50E302C05D93BE
:1049E00091509111FCCFC40ED11C40E0ACCF01E03E
:1049F000BACF80E3DBCF6217730731F4963388F4C4
:104A0000953311F4552369F0F6018083FD01842F5D
:104A100090E2811108C0A40FB11D1C9290E080E0CB
:104A200002CF81E3F1CF91938150F3CF911183CFE6
:104A30008ACF283008F027E03327DA01990F311D9B
:104A400087FD916000966105710539F432602E5F33
:104A50003D9330E32A95E1F708959F3F30F0803889
:104A60007105610509F03C5F3C5F3D93913008F0B2
:104A70008068911DDF93CF931F930F93FF92EF9266
:104A8000192F987F9695E92F96959695E90FFF2710
:104A9000EE53FF4F99273327EE24FF24A701E701A8
:104AA00005900894079428F4360FE71EF81E491F56
:104AB000511D660F771F881F991F0694A1F7059057
:104AC000079428F4E70EF81E491F561FC11D770FE3
:104AD000881F991F661F0694A1F70590079428F474
:104AE000F80E491F561FC71FD11D880F991F661F3B
:104AF000771F0694A1F70590079420F4490F561FDD
:104B0000C71FD81F990F661F771F881F0694A9F724
:104B100084911095177041F0D695C7955795479594
:104B2000F794E7941A95C1F7E8E6F0E068941590D9
:104B3000159135916591959105907FE27395E118F6
:104B4000F10A430B560BC90BD009C0F7E10CF11E5B
:104B5000431F561FC91FD01D7EF4703311F48A9570
:104B6000E6CFE894015030F0080F0AF4002702174E
:104B700008F4202F2395022F7A3328F079E37D93D0
:104B80002A95E9F710C07D932A9589F606949795A2
:104B90006795379517951794E118F10A430B560B53
:104BA000C90BD00998F023957E9173957A3308F05C
:104BB00070E37C932013B8F77E9170617D9330F0A1
:104BC000839571E37D9370E32A95E1F71124EF90CB
:104BD000FF900F911F91CF91DF91992787FD9095BD
:104BE0000895992788270895DC01FC01672F7191AA
:104BF0007723E1F7329704C07C916D9370836291C3
:104C0000AE17BF07C8F30895E89409C097FB3EF4B8
:104C100090958095709561957F4F8F4F9F4F992309
:104C2000A9F0F92F96E9BB279395F6958795779587
:104C30006795B795F111F8CFFAF4BB0F11F460FF47
:104C40001BC06F5F7F4F8F4F9F4F16C0882311F09F
:104C500096E911C0772321F09EE8872F762F05C0B3
:104C6000662371F096E8862F70E060E02AF09A954E
:104C7000660F771F881FDAF7880F9695879597F943
:104C8000089597F99F6780E870E060E008959FEFCE
:104C900080EC089500240A941616170618060906D3
:104CA000089500240A9412161306140605060895A2
:104CB000092E0394000C11F4882352F0BB0F40F42A
:104CC000BF2B11F460FF04C06F5F7F4F8F4F9F4F6A
:104CD000089557FD9058440F551F59F05F3F71F0EC
:104CE0004795880F97FB991F61F09F3F79F0879553
:104CF0000895121613061406551FF2CF4695F1DFDC
:104D000008C0161617061806991FF1CF869571056B
:104D1000610508940895E894BB2766277727CB019F
:104D200097F90895F999FECF92BD81BDF89A992718
:104D300080B50895262FF999FECF1FBA92BD81BD87
:104D400020BD0FB6F894FA9AF99A0FBE019608950D
:104D5000DB018F939F930E94F926BF91AF91A29F91
:104D6000800D911DA39F900DB29F900D1124089569
:104D7000A1E21A2EAA1BBB1BFD010DC0AA1FBB1F5F
:104D8000EE1FFF1FA217B307E407F50720F0A21BD1
:104D9000B30BE40BF50B661F771F881F991F1A943E
:104DA00069F760957095809590959B01AC01BD0168
:104DB000CF010895052E97FB1EF400940E94F12662
:104DC00057FD07D00E94B82607FC03D04EF40C9480
:104DD000F12650954095309521953F4F4F4F5F4FAD
:104DE000089590958095709561957F4F8F4F9F4F57
:104DF00008950E944327A59F900DB49F900DA49FF6
:104E0000800D911D11240895B7FF0C94F9260E947E
:104E1000F926821B930B08952F923F924F925F9237
:104E20006F927F928F929F92AF92BF92CF92DF92BA
:104E3000EF92FF920F931F93CF93DF93CDB7DEB71F
:104E4000CA1BDB0B0FB6F894DEBF0FBECDBF0994B3
:104E50002A88398848885F846E847D848C849B840A
:104E6000AA84B984C884DF80EE80FD800C811B8118
:104E7000AA81B981CE0FD11D0FB6F894DEBF0FBE47
:104E8000CDBFED010895A29FB001B39FC001A39FC4
:104E9000700D811D1124911DB29F700D811D112473
:104EA000911D08950E9466270C9458260E94512651
:104EB00058F00E944A2640F029F45F3F29F00C94F4
:104EC000412651110C948C260C9447260E94692689
:104ED00068F39923B1F3552391F3951B550BBB2729
:104EE000AA2762177307840738F09F5F5F4F220F6E
:104EF000331F441FAA1FA9F335D00E2E3AF0E0E865
:104F000032D091505040E695001CCAF72BD0FE2FAE
:104F100029D0660F771F881FBB1F26173707480742
:104F2000AB07B0E809F0BB0B802DBF01FF279358FA
:104F30005F4F3AF09E3F510578F00C9441260C9457
:104F40008C265F3FE4F3983ED4F38695779567957A
:104F5000B795F7959F5FC9F7880F911D969587952F
:104F600097F90895E1E0660F771F881FBB1F62174E
:104F700073078407BA0720F0621B730B840BBA0B0C
:104F8000EE1F88F7E0950895EE0FFF1F0590F4914E
:104F9000E02D0994B0E0A0E0E0EDF7E20C940E27DC
:104FA0008C01009751F4CB010E94E2208C01C801D2
:104FB000CDB7DEB7E0E10C942A27FC01E60FF71F1E
:104FC0009C0122503109E217F30708F49DC0D90172
:104FD000CD91DC911197C617D70798F0C530D10550
:104FE00030F3CE0104978617970708F3C61BD70B3B
:104FF0002297C193D1936D937C93CF010E947E2120
:10500000D6CF5B01AC1ABD0A4C018C0E9D1EA0913F
:10501000AB03B091AC03512C412CF12CE12C109737
:1050200031F58091A9039091AA038815990509F09B
:105030005CC04616570608F058C080913001909128
:105040003101009741F48DB79EB7409134015091E2
:105050003501841B950BE817F90708F055C0F0934C
:10506000AA03E093A903F90171836083A0CF8D9116
:105070009C91119712966C90129713967C901397AF
:10508000A815B90559F56C0142E0C40ED11CCA142B
:10509000DB0420F1AC014A195B09DA01129615977D
:1050A00080F06282738251834083D9016D937C9337
:1050B000E114F10471F0D7011396FC93EE9312976B
:1050C00076CF22968C0F9D1FF90191838083F30187
:1050D000EFCFF093AC03E093AB0369CF48165906CA
:1050E00008F42C017D01D3019ACFCB010E94E2206C
:1050F0007C01009749F0AE01B8010E948F28C801D9
:105100000E947E21870153CF10E000E050CF911123
:10511000089581568A5108F4805285580895FB01FC
:10512000DC0102C001900D9241505040D8F7089523
:10513000FC018191861721F08823D9F799270895DA
:105140003197CF010895FB01DC0101900D92002001
:10515000E1F70895FB01DC014150504030F08D91A2
:105160000190801919F40020B9F7881B990B089554
:04517000F894FFCFE1
:105174000580818283848520BF020030750000038E
:105184000090010000080700008025409C000012E8
:10519400120513003501360030750000D08AFFFF78
:1051A4000000AF03800000000000AA07D9060F0723
:1051B400120872071E0764070D0A0070756D705F90
:1051C4006163742061637469766174656420666FD9
:1051D400722000206D73003078005B0020736563DB
:1051E4002E2074696D65206C6566742000207365DB
:0451F400632E000026
:00000001FF
